:1010B80041003C0041003D00440042000000004463
:0610C800003E00000000E4
:080003003099FDC2998F99228A
:1011280090003EE0FCA3E0FDA3E0FEA3E02401FF65
:10113800E43EFEE43DFDE43CFC90003E12055A22EC
:0F123C0090003EE0FCA3E0FDA3E0FEA3E0FF2254
:0700260090003E12055A2272
:1011DB00A2AF9209C2AF75C7AA75C755E4F591A224
:0A11EB000992AF53B3FB43B4042292
:0608D00090001112055A10
:1008D600538EEF53890F4389107B407A42790F7804
:1008E60000900011E0FCA3E0FDA3E0FEA3E0FF12F0
:1008F60004A4A804A905AA06AB07900017E0FEA366
:10090600E0FFE4FCFD120419E47B0CFAF9F812048A
:10091600A4C374FF9FFF74FF9EFEE49DFDE49CFC50
:10092600EFE4900019EFF07B407A42790F7800905F
:100936000011E0FCA3E0FDA3E0FEA3E0FF1204A487
:10094600A804A905AA06AB07900017E0FEA3E0FFDE
:10095600E4FCFD120419E47B0CFAF9F81204A4C3B2
:1009660074FF9FFF74FF9EFEE49DFDE49CFC7808E7
:10097600120547900015E07002A3E060219000196F
:10098600E0F58B8F8DD28E308FFDC28FC28E900098
:0E09960016E024FFF0900015E034FFF080D54D
:0109A4002230
:100F6D0012112812123CE47BE87A03F9F81204A45A
:100F7D00AC00AD01AE02AF03E4FBFAF9F8C3120504
:0C0F8D00367005A292B3929212123C2220
:03000B00020E2EB4
:100E2E00C0E0C0F0C083C082C0D075D000C000C08A
:100E3E0001C002C003C004C005C006C007C0919027
:100E4E00003CE0F58CA3E0F58AC28D120F6DD091B7
:100E5E00D007D006D005D004D003D002D001D000E8
:0B0E6E00D0D0D082D083D0F0D0E03292
:100FF100E4900007F0A3F05389F043890190003C8D
:1010010074F8F0A37430F090003CE0F58CA3E0F5A7
:071011008AD2A9D2AFD28CF4
:0110180022B5
:100E7900AB07EBD3947F503D900042E0FCA3E0FD2B
:100E8900A3E0FEA3E05402FFE4FEFDFCEF60047F53
:100E99000180027F00EF601D900042E0FCA3E0FDAD
:100EA900A3E0FEA3E054FDFFEEEDEC900042120535
:060EB9005AAF0380002285
:03002300020D20AB
:100D2000C0E0C0F0C083C082C0D075D000C000C099
:100D300003C004C005C006C007309820900042E000
:100D4000FCA3E0FDA3E0FEA3E04402FFEEEDEC9087
:100D5000004212055AAF99120E79C29830990520B7
:100D60000A02C299D007D006D005D004D003D00023
:0B0D7000D0D0D082D083D0F0D0E03291
:1009A5009000071205660001C200A2AF9209C2AF0E
:1009B50075C7AA75C755E4F591A20992AF53B1BFA2
:1009C50053B2BF75985043878053C4F8A2AF9209BC
:1009D500C2AF75C7AA75C755F591A20992AF43C4B1
:1009E50020900007E0F8A3E0F9A3E0FAA3E0FB7F7D
:1009F500607EE37D167C001204A4C3E49FFFE49EA1
:100A0500FE74019DFDE49CFC78081205478FC69095
:100A15000007E0F8A3E0F9A3E0FAA3E0FB7F607E1E
:100A2500E37D167C001204A4C3E49FFFE49EFE74DC
:100A3500019DFDE49CFCEFE48FC5A2AF9209C2AF16
:100A450075C7AA75C755F591A20992AF43C408D2D7
:070A5500ACD2AFD299D20A26
:010A5C002277
:100BA100E58720E403020C2EA2AF9209C2AF75C7FC
:100BB100AA75C755439F01A20992AF75A638E4F5FE
:100BC100A775AF04A2AF9209C2AF75C7AA75C75581
:100BD10043A401A20992AF85AE0875A639F5A7A273
:100BE100AF9209C2AF75C7AA75C75543A401A2093F
:100BF10092AF85AE09A2AF9209C2AF75C7AA75C7F8
:100C010055539FFEA20992AF75C7AA75C7558508AE
:100C11008475C7AA75C755850985A2AF9209C2AF68
:0D0C210075C7AA75C755539FFEA20992AF73
:010C2E0022A3
:1010DE00120BA1A2AF9209C2AF75C7AA75C755E48C
:1010EE00F591A20992AFF5B1F5B2F5B3F5B4F5AC41
:0510FE00F5ADD2AF22A8
:10120E001210DE1209A51211DB120F041212261291
:08121E000FF1120D7B80FB2291
:10000E00493243205772697465206572726F72208F
:03001E000D0A00C8
:0A10CE00410031004300360000002D
:101168007FE87E03D2C5C2C320C312D3EF9400EE3A
:0D117800648094804007EF1F70011E80EB23
:011185002247
:101186007FE87E03C2C3D2C430C412D3EF9400EE0C
:0D119600648094804007EF1F70011E80EB05
:0111A3002229
:100EBF007DE87C03E4FED2C2C2C320C312D3ED94FB
:100ECF0000EC648094804007ED1D70011C80EBAE38
:100EDF00BCEFB4011D7C037DE8C2C2C2C320C312A4
:100EEF00D3ED9400EC648094804007ED1D70011CDD
:040EFF0080EBAF06CF
:010F030022CB
:101148007DE87C038FBCC2C5C2C320C312D3ED9413
:0F11580000EC648094804007ED1D70011C80EB5B
:011167002265
:100DD50090004EEBF0A3EAF0A3E9F0A3ECF0A3ED4D
:010DE500F01D
:100DE6007FFF90005174FFF5F012040345F0603761
:100DF60090004EE0FBA3E475F001120403A9F0FA9B
:100E060012039BFEEFC4540F6EFE1313543F6EFE87
:100E1600C4333354C0FDEFC454F06DFFEE333333A7
:070E260054F86F6EFF80BB62
:010E2D0022A2
:1011C0007BFF7A00790E1200A1E5BD700DD20BD223
:0B11D000C4C2C330C304C2C6D2C62292
:07124B0090005312055A2226
:1011F50030C315E5BD7002D2C4C2C330C3F2C2C646
:09120500D2C6C2C3C2C680E822B1
:03003300020C2F8D
:100C2F00C0E0C0F0C083C082C0D075D000C000C08B
:0D0C3F0001C002C003C004C005C006C0070C
:100C4C009000007403F0A374E8F0A3E4F0AFBDFCD3
:100C5C00FDFEA312055AAFBFEF5401F5BF6005129C
:100C6C0011F5802A900036E0A3E0FAA3E04A601E5A
:100C7C00900003E0FCA3E0FDA3E0FEA3E0FF9000E6
:0E0C8C0036E0A3E0FAA3E0F5828A8312059B0E
:100C9A00D007D006D005D004D003D002D001D000AE
:0B0CAA00D0D0D082D083D0F0D0E03258
:1005F50090005712055AE47F08FEFDFC900057E075
:10060500F8A3E0F9A3E0FAA3E0FBC3120536700EE8
:10061500C2C5900032E0FF25E0F5BCD2C322E47FDD
:1006250018FEFDFC900057E0F8A3E0F9A3E0FAA35B
:10063500E0FBC3120536700990003BE0F5BCD2C360
:1006450022E47F20FEFDFC900057E0F8A3E0F9A32B
:10065500E0FAA3E0FBC31205367009D2C4D2C3D2B7
:10066500C5D2C222E47F28FEFDFC900057E0F8A326
:10067500E0F9A3E0FAA3E0FBC31205367019900078
:100685003AE0D394004005D2C3D2C522D2C3D2C426
:100695009000317401F022E47F10FEFDFC900057BC
:1006A500E0F8A3E0F9A3E0FAA3E0FBC31205367076
:1006B50010C2C5900032E0FF25E04401F5BCD2C36D
:1006C50022E47F40FEFDFC900057E0F8A3E0F9A38B
:1006D500E0FAA3E0FBC3120536701190003AE0D3AF
:1006E50094014005D2C3D2C222D2C322E47F48FE80
:1006F500FDFC900057E0F8A3E0F9A3E0FAA3E0FBC6
:10070500C31205367005D2C4D2C222E47F50FEFD65
:10071500FC900057E0F8A3E0F9A3E0FAA3E0FBC3DF
:100725001205367032900033E0FBA3E0FAA3E0F93E
:10073500900039E0FF04F08F82758300E5BC120359
:10074500E190003AE014FF900039E0C39F5005D2D4
:10075500C3D2C222C2C222E47F58FEFDFC900057DC
:10076500E0F8A3E0F9A3E0FAA3E0FBC312053670B5
:1007750027900033E0FBA3E0FAA3E0F9900039E00D
:10078500FF04F08F82758300E5BC1203E1D2C3D26A
:0C079500C49000317401F0221211F52212
:1007A10090005B12055AE47F08FEFDFC90005BE0BF
:1007B100F8A3E0F9A3E0FAA3E0FBC3120536700E3B
:1007C100C2C5900032E0FF25E0F5BCD2C322E47F30
:1007D10018FEFDFC90005BE0F8A3E0F9A3E0FAA3AA
:1007E100E0FBC3120536700990003BE0F5BCD2C3B3
:1007F10022E47F20FEFDFC90005BE0F8A3E0F9A37A
:10080100E0FAA3E0FBC31205367009D2C4D2C3D209
:10081100C5D2C222E47F28FEFDFC90005BE0F8A374
:10082100E0F9A3E0FAA3E0FBC312053670399000AA
:100831003AE0FF900039E0C39F501F900033E0FB86
:10084100A3E0FAA3E0F9900039E0FF04F08F82758C
:1008510083001203B4F5BCD2C322D2C4D2C3D2C224
:100861009000317401F022E47F30FEFDFC90005BCA
:10087100E0F8A3E0F9A3E0FAA3E0FBC312053670A8
:1008810005D2C4D2C222E47F38FEFDFC90005BE0B9
:10089100F8A3E0F9A3E0FAA3E0FBC3120536700761
:1008A100D2C5D2C3D2C222E4FFFEFDFC90005BE0C0
:1008B100F8A3E0F9A3E0FAA3E0FBC3120536700B3D
:0F08C100D2C4D2C3D2C2D2C3D2C2221211F522E4
:100CB500900010ECF0A3EDF0A3EBF0A3EAF0A3E9AC
:010CC500F03E
:100CC600E4900017F0EF25E0FD121168AF05121150
:100CD60048900010E0A3E0FF121148E4900017F0DE
:100CE600900017E0FFD3900016E09F900015E09467
:100CF600004023900012E0FBA3E0FAA3E0F9900085
:100D060017E0F5827583001203B4FF1211489000B4
:090D160017E004F080CA121186F6
:010D1F0022B1
:100A5D00900012ECF0A3EDF0A3EBF0A3EAF0A3E904
:010A6D00F098
:100A6E00E4900019F0A3F0EF25E0FB121168AF033C
:100A7E00121148900012E0A3E0FF12114812116803
:100A8E00EB4401FF121148E4900019F0900019E0B8
:100A9E00FF7E00900017E0FCA3E0FDD39FEC9E408C
:100AAE0054ED24FFFDEC34FFFCEDB50723EEB50449
:100ABE001F7F01120EBF900014E0FBA3E0FAA3E02B
:100ACE00F9900019E0F582758300EF1203E1801DA5
:100ADE00E4FF120EBF900014E0FBA3E0FAA3E0F9CE
:100AEE00900019E0F582758300EF1203E190001972
:080AFE00E004F080971211865C
:010B060022CC
:100F0400A2AF9209C2AF75C7AA75C755E4F591A2FD
:100F14000992AF43B30843B408A2AF9209C2AF75B4
:100F2400C7AA75C755F591A20992AF43B31043B44C
:0C0F340010C2C075BE3B43BF04D2C622F1
:03000000020B07E9
:100B0700787FE4F6D8FD9000007FFF7E03E4F0A332
:0A0B1700DFFCDEFA758121020B5CA1
:101103002A0D0A0048203A3078253242582C4C20C8
:101113003A20307825324258286465633A202535D1
:0511230075290D0A0012
:0510D80042005F000072
:1011A400900015EEF0A3EFF0A37403F0A374E8F03D
:0C11B4007F007E367D6E7C011208D02288
:100F99009000061203B4FF12039BFD7C00E92401B3
:100FA900F9E43AFA900015E4F0A37402F0120CB5D2
:0C0FB9007F057E001211A47E007F012243
:100FC5009000061203B4FF12039BFD7C00E9240385
:100FD500F9E43AFA900017E4F0A37402F0120A5DFE
:0C0FE5007F057E001211A47E007F012217
:100F400090000F7460F090000974F2F090005FE080
:100F5000A3E0900010F07B017A007909120FC59090
:0C0F6000000DE0FE90000CE0FDEEEDFF47
:010F6C002262
:1010910090004C7460F0900046EFF090005FE0A388
:1010A100E090004DF0900047EDF0A3EBF07B017A6A
:0610B100007946120F99C0
:0110B7002216
:1010190090000D7460F09000077408F090005FE094
:10102900A3E090000EF0900008EFF0A3EDF07B0133
:071039007A007907120F99FC
:01104000228D
:1010410090000D7460F09000077403F090005FE071
:10105100A3E090000EF0900008EFF0A3EDF07B010B
:071061007A007907120F99D4
:011068002265
:1010690090000D7460F09000077404F090005FE048
:10107900A3E090000EF0900008EFF0A3EDF07B01E3
:071089007A007907120F99AC
:01109000223D
:101226007D04E4FF1210697DC0E4FF121041E4FD65
:061236007F0112101922D5
:100D7B00E4900007F0A3F0120F40900007EEF0A3F1
:100D8B00EFF064C17003EE64C1600C900007E0B437
:100D9B00050FA3E0B4880A7BFF7A1179031200A137
:100DAB00227BFF7A117907900007E0FCA3E0FDECB2
:100DBB0090000CF0EDA3F0900007E0FFA3E0900093
:090DCB000ECFF0A3EFF01200A11D
:010DD40022FC
:100B210002120EE493A3F8E493A34003F68001F2CA
:100B310008DFF48029E493A3F85407240CC8C333D5
:100B4100C4540F4420C8834004F456800146F6DFA4
:100B5100E4800B01020408102040809010B8E47E6C
:100B6100019360BCA3FF543F30E509541FFEE49399
:100B7100A360010ECF54C025E060A840B8E493A360
:100B8100FAE493A3F8E493A3C8C582C8CAC583CA8B
:100B9100F0A3C8C582C8CAC583CADFE9DEE780BE43
:0110DD000012
:10039B00BB010689828A83E0225002E722BBFE0260
:0903AB00E32289828A83E4932293
:1003B400BB010CE58229F582E5833AF583E02250FE
:1003C40006E92582F8E622BBFE06E92582F8E22248
:0D03D400E58229F582E5833AF583E4932262
:1003E100F8BB010DE58229F582E5833AF583E8F052
:1003F100225006E92582C8F622BBFE05E92582C8FE
:02040100F222E5
:10040300A3F8E0C5F025F0F0E582158270021583AC
:06041300E0C838F0E82209
:10041900E88FF0A4CC8BF0A42CFCE98EF0A42CFC82
:100429008AF0EDA42CFCEA8EF0A4CDA8F08BF0A400
:100439002DCC3825F0FDE98FF0A42CCD35F0FCEB5F
:100449008EF0A4FEA9F0EB8FF0A4CFC5F02ECD3924
:0F045900FEE43CFCEAA42DCE35F0FDE43CFC2291
:1004680075F008758200EF2FFFEE33FECD33CDCC4B
:1004780033CCC58233C5829BED9AEC99E5829840CE
:100488000CF582EE9BFEED9AFDEC99FC0FD5F0D6AB
:10049800E4CEFBE4CDFAE4CCF9A88222B800C1B9D5
:1004A8000059BA002DEC8BF084CFCECDFCE5F0CB13
:1004B800F97818EF2FFFEE33FEED33FDEC33FCEB4C
:1004C80033FB10D703994004EB99FB0FD8E5E4F907
:1004D800FA227818EF2FFFEE33FEED33FDEC33FCF4
:1004E800C933C910D7059BE99A4007EC9BFCE99AE8
:1004F800F90FD8E0E4C9FAE4CCFB2275F010EF2F2D
:10050800FFEE33FEED33FDCC33CCC833C810D7072C
:100518009BEC9AE899400AED9BFDEC9AFCE899F867
:0E0528000FD5F0DAE4CDFBE4CCFAE4C8F922FA
:10053600EB9FF5F0EA9E42F0E99D42F0E89C45F01B
:010546002292
:10054700E8600FECC313FCED13FDEE13FEEF13FF92
:03055700D8F122B6
:0C055A00ECF0A3EDF0A3EEF0A3EFF02214
:10056600A8828583F0D083D08212057D12057D1284
:10057600057D12057DE473E493A3C583C5F0C583A9
:10058600C8C582C8F0A3C583C5F0C583C8C582C8DF
:010596002242
:060597008A838982E473EF
:10003600E508240CF582E43400F583E005082290F7
:10004600000930070390000CE475F0011205AF02B9
:10005600039B2000E97F2ED2008018EF540F2490D6
:10006600D43440D4FF30040BEF24BFB41A0050033D
:100076002461FFE50960021509050CE50C7002050F
:100086000B30070E900009E475F0011205AFEF0280
:10009600059D0200037403D2078003E4C207F50836
:1000A6009000091205C6E4F509F50BF50CE50960A3
:1000B600077F2012007980F5750AFFC201C200C2CF
:1000C60002C203C205C206C208120045FF700D3007
:1000D60007057F0012008AAF0CAE0B22B4255FC263
:1000E600D5C204120045FF24D0B40A00501A75F098
:1000F6000A780930D50508B6FF0106C6A426F620FB
:10010600D5047002D20380D924CFB41A00EF50046C
:10011600C2E5D20402028BD20180C6D20080C0D2D0
:100126000280BCD2D580BAD20580B47F2012007975
:100136002002077401B5090040F1120036FF1200D3
:10014600790200B3D208D2068095120036FB12005F
:1001560036FA120036F94A4B7006795C7A037BFF51
:1001660020022EE509602A7E008E82758300120326
:10017600B460060EEE650A70F0C2D5EBC0E0EAC0C8
:10018600E0E9C0E0EE1202D2D0E0F9D0E0FAD0E029
:10019600FB12039BFF60AAEBC0E0EAC0E0E9C0E007
:1001A600120079D0E02401F9D0E03400FAD0E0FB67
:1001B600E50A0460DCD50AD980877BFF7A0279CE0E
:1001C600D202809C791080027908C206C208800893
:1001D600D2D5790A8004790AC2D5E50A047002F5F7
:1001E6000AE4FAFDFEFF120036FC7B08200113121A
:1001F6000036FD7B1030000A120036FE120036FF74
:100206007B20EC3382D592D55013C3E43000069F91
:10021600FFE49EFEE42001039DFDE49CFCE4CBF894
:10022600C201EC700CCFCECDCCE824F8F870F38088
:1002360017C3EF33FFEE33FEED33FDEC33FCEB3348
:10024600FB994002FB0FD8E9EB300105F8D0E0C47A
:1002560048B201C0E00AEC4D4E4F78207B0070C2D8
:10026600EAB50A0040BCC0E01202D4D0F0D0E020CB
:100276000104C4C0E0C4B201C0F0120062D0F0D5DF
:10028600F0EB0200B31205CF01505301CA58012109
:100296004C011D4201CE4F01D64401D649013643D9
:0802A60001DC5501C04601C056
:1002AE004501C047037C5001252D01292E014C2B01
:1002BE00012D23014A2003652A00E5480000014470
:1002CE003F3F3F00790AA2D5200314300509B9102B
:1002DE00020404B9080104A2D5200602500104202C
:1002EE0002689202B509005034C0E07F2030031935
:1002FE007F30A20272067205500F12032BC202C289
:10030E0006C205C2087F30800F300503E9C0E01237
:10031E000079300503D0E0F9D0E0B509CC300517EF
:10032E007F30B9100C1200797F583004077F788027
:10033E0003B908031200793002057F2D0200797F80
:10034E00202008F87F2B2006F322920280CF286E01
:10035E00756C6C2900D2011200363001F8C201789A
:10036E000930D50108F60200E52D50434958120018
:10037E00362403B405004001E49003779312006A1B
:0D038E00743A12006AD2037509040201CA14
:10059D00BB010689828A83F0225002F722BBFE013D
:0205AD00F32237
:1005AF00F8E0FBA3A3E0F925F0F0E58215827002D5
:0705BF001583E0FA38F02279
:0905C600EBF0A3EAF0A3E9F02236
:1005CF00D083D082F8E4937012740193700DA3A3BB
:1005DF0093F8740193F5828883E4737402936860CF
:0605EF00EFA3A3A380DFCF
:00000001FF
